{
  "_format": "hh-sol-artifact-1",
  "contractName": "BBB",
  "sourceName": "contracts/work.sol",
  "abi": [
    {
      "inputs": [
        {
          "internalType": "address",
          "name": "_token",
          "type": "address"
        }
      ],
      "name": "addWhitelist",
      "outputs": [],
      "stateMutability": "nonpayable",
      "type": "function"
    },
    {
      "inputs": [
        {
          "internalType": "uint256",
          "name": "_amount",
          "type": "uint256"
        },
        {
          "internalType": "address",
          "name": "_token",
          "type": "address"
        },
        {
          "internalType": "bool",
          "name": "_isETH",
          "type": "bool"
        }
      ],
      "name": "deposit",
      "outputs": [],
      "stateMutability": "payable",
      "type": "function"
    },
    {
      "inputs": [
        {
          "internalType": "address",
          "name": "token",
          "type": "address"
        }
      ],
      "name": "getReward",
      "outputs": [
        {
          "internalType": "uint256",
          "name": "reward",
          "type": "uint256"
        }
      ],
      "stateMutability": "view",
      "type": "function"
    },
    {
      "inputs": [
        {
          "internalType": "address",
          "name": "_to",
          "type": "address"
        },
        {
          "internalType": "uint256",
          "name": "_amount",
          "type": "uint256"
        },
        {
          "internalType": "bool",
          "name": "_isETH",
          "type": "bool"
        },
        {
          "internalType": "address",
          "name": "_token",
          "type": "address"
        }
      ],
      "name": "withdraw",
      "outputs": [],
      "stateMutability": "nonpayable",
      "type": "function"
    }
  ],
  "bytecode": "0x6080604052336000806101000a81548173ffffffffffffffffffffffffffffffffffffffff021916908373ffffffffffffffffffffffffffffffffffffffff16021790555034801561005057600080fd5b50610e9b806100606000396000f3fe60806040526004361061003f5760003560e01c8063430004c11461004457806383df67471461006d578063c00007b014610089578063f80f5dd5146100c6575b600080fd5b34801561005057600080fd5b5061006b60048036038101906100669190610a40565b6100ef565b005b61008760048036038101906100829190610aa7565b610377565b005b34801561009557600080fd5b506100b060048036038101906100ab9190610afa565b610546565b6040516100bd9190610b36565b60405180910390f35b3480156100d257600080fd5b506100ed60048036038101906100e89190610afa565b61067b565b005b61017f81600280548060200260200160405190810160405280929190818152602001828054801561017557602002820191906000526020600020905b8160009054906101000a900473ffffffffffffffffffffffffffffffffffffffff1673ffffffffffffffffffffffffffffffffffffffff168152602001906001019080831161012b575b505050505061077a565b61018857600080fd5b60006040518060a0016040528084151581526020018581526020018373ffffffffffffffffffffffffffffffffffffffff1681526020013073ffffffffffffffffffffffffffffffffffffffff1681526020018673ffffffffffffffffffffffffffffffffffffffff1681525090506000600360003373ffffffffffffffffffffffffffffffffffffffff1673ffffffffffffffffffffffffffffffffffffffff16815260200190815260200160002060008473ffffffffffffffffffffffffffffffffffffffff1673ffffffffffffffffffffffffffffffffffffffff168152602001908152602001600020600101549050808260200151106102c1576040517f08c379a00000000000000000000000000000000000000000000000000000000081526004016102b890610bae565b60405180910390fd5b600090506102ce826107fc565b60006102d984610546565b9050735b38da6a701c568545dcfcb03fcb875f56beddc473ffffffffffffffffffffffffffffffffffffffff1663a9059cbb33836040518363ffffffff1660e01b815260040161032a929190610bdd565b6020604051808303816000875af1158015610349573d6000803e3d6000fd5b505050506040513d601f19601f8201168201806040525081019061036d9190610c1b565b5050505050505050565b6104078260028054806020026020016040519081016040528092919081815260200182805480156103fd57602002820191906000526020600020905b8160009054906101000a900473ffffffffffffffffffffffffffffffffffffffff1673ffffffffffffffffffffffffffffffffffffffff16815260200190600101908083116103b3575b505050505061077a565b61041057600080fd5b610418610955565b60006040518060a0016040528084151581526020018681526020018573ffffffffffffffffffffffffffffffffffffffff1681526020013373ffffffffffffffffffffffffffffffffffffffff1681526020013073ffffffffffffffffffffffffffffffffffffffff168152509050610490816107fc565b4264ffffffffff168260000181815250508482602001818152505081600360003373ffffffffffffffffffffffffffffffffffffffff1673ffffffffffffffffffffffffffffffffffffffff16815260200190815260200160002060008673ffffffffffffffffffffffffffffffffffffffff1673ffffffffffffffffffffffffffffffffffffffff16815260200190815260200160002060008201518160000155602082015181600101559050505050505050565b600080600360003373ffffffffffffffffffffffffffffffffffffffff1673ffffffffffffffffffffffffffffffffffffffff16815260200190815260200160002060008473ffffffffffffffffffffffffffffffffffffffff1673ffffffffffffffffffffffffffffffffffffffff1681526020019081526020016000206001015490506000600360003373ffffffffffffffffffffffffffffffffffffffff1673ffffffffffffffffffffffffffffffffffffffff16815260200190815260200160002060008573ffffffffffffffffffffffffffffffffffffffff1673ffffffffffffffffffffffffffffffffffffffff16815260200190815260200160002060000154905081814261065c9190610c77565b60326106689190610cda565b6106729190610d0b565b92505050919050565b61070b81600180548060200260200160405190810160405280929190818152602001828054801561070157602002820191906000526020600020905b8160009054906101000a900473ffffffffffffffffffffffffffffffffffffffff1673ffffffffffffffffffffffffffffffffffffffff16815260200190600101908083116106b7575b505050505061077a565b61071457600080fd5b6002819080600181540180825580915050600190039060005260206000200160009091909190916101000a81548173ffffffffffffffffffffffffffffffffffffffff021916908373ffffffffffffffffffffffffffffffffffffffff16021790555050565b6000808251905060005b818110156107ef5783818151811061079f5761079e610d4d565b5b602002602001015173ffffffffffffffffffffffffffffffffffffffff168573ffffffffffffffffffffffffffffffffffffffff16036107e4576001925050506107f6565b806001019050610784565b5060009150505b92915050565b8060000151156108c0576000816080015173ffffffffffffffffffffffffffffffffffffffff16826020015160405161083490610dad565b60006040518083038185875af1925050503d8060008114610871576040519150601f19603f3d011682016040523d82523d6000602084013e610876565b606091505b50509050806108ba576040517f08c379a00000000000000000000000000000000000000000000000000000000081526004016108b190610e0e565b60405180910390fd5b50610952565b806040015173ffffffffffffffffffffffffffffffffffffffff166323b872dd8260600151836080015184602001516040518463ffffffff1660e01b815260040161090d93929190610e2e565b6020604051808303816000875af115801561092c573d6000803e3d6000fd5b505050506040513d601f19601f820116820180604052508101906109509190610c1b565b505b50565b604051806040016040528060008152602001600081525090565b600080fd5b600073ffffffffffffffffffffffffffffffffffffffff82169050919050565b600061099f82610974565b9050919050565b6109af81610994565b81146109ba57600080fd5b50565b6000813590506109cc816109a6565b92915050565b6000819050919050565b6109e5816109d2565b81146109f057600080fd5b50565b600081359050610a02816109dc565b92915050565b60008115159050919050565b610a1d81610a08565b8114610a2857600080fd5b50565b600081359050610a3a81610a14565b92915050565b60008060008060808587031215610a5a57610a5961096f565b5b6000610a68878288016109bd565b9450506020610a79878288016109f3565b9350506040610a8a87828801610a2b565b9250506060610a9b878288016109bd565b91505092959194509250565b600080600060608486031215610ac057610abf61096f565b5b6000610ace868287016109f3565b9350506020610adf868287016109bd565b9250506040610af086828701610a2b565b9150509250925092565b600060208284031215610b1057610b0f61096f565b5b6000610b1e848285016109bd565b91505092915050565b610b30816109d2565b82525050565b6000602082019050610b4b6000830184610b27565b92915050565b600082825260208201905092915050565b7f4552524f52000000000000000000000000000000000000000000000000000000600082015250565b6000610b98600583610b51565b9150610ba382610b62565b602082019050919050565b60006020820190508181036000830152610bc781610b8b565b9050919050565b610bd781610994565b82525050565b6000604082019050610bf26000830185610bce565b610bff6020830184610b27565b9392505050565b600081519050610c1581610a14565b92915050565b600060208284031215610c3157610c3061096f565b5b6000610c3f84828501610c06565b91505092915050565b7f4e487b7100000000000000000000000000000000000000000000000000000000600052601160045260246000fd5b6000610c82826109d2565b9150610c8d836109d2565b9250828203905081811115610ca557610ca4610c48565b5b92915050565b7f4e487b7100000000000000000000000000000000000000000000000000000000600052601260045260246000fd5b6000610ce5826109d2565b9150610cf0836109d2565b925082610d0057610cff610cab565b5b828204905092915050565b6000610d16826109d2565b9150610d21836109d2565b9250828202610d2f816109d2565b91508282048414831517610d4657610d45610c48565b5b5092915050565b7f4e487b7100000000000000000000000000000000000000000000000000000000600052603260045260246000fd5b600081905092915050565b50565b6000610d97600083610d7c565b9150610da282610d87565b600082019050919050565b6000610db882610d8a565b9150819050919050565b7f4661696c65640000000000000000000000000000000000000000000000000000600082015250565b6000610df8600683610b51565b9150610e0382610dc2565b602082019050919050565b60006020820190508181036000830152610e2781610deb565b9050919050565b6000606082019050610e436000830186610bce565b610e506020830185610bce565b610e5d6040830184610b27565b94935050505056fea2646970667358221220a5a388b6d78ad3946bb6d6b642464cb183d41fc8f8183c44623b0660ab78ff1164736f6c63430008110033",
  "linkReferences": {},
  "deployedLinkReferences": {}
}